{
  "contractName": "Greeter",
  "abi": [
    {
      "anonymous": false,
      "inputs": [
        {
          "indexed": true,
          "internalType": "address",
          "name": "previousOwner",
          "type": "address"
        },
        {
          "indexed": true,
          "internalType": "address",
          "name": "newOwner",
          "type": "address"
        }
      ],
      "name": "OwnershipTransferred",
      "type": "event"
    },
    {
      "inputs": [],
      "name": "owner",
      "outputs": [
        {
          "internalType": "address",
          "name": "",
          "type": "address"
        }
      ],
      "stateMutability": "view",
      "type": "function",
      "constant": true
    },
    {
      "inputs": [],
      "name": "renounceOwnership",
      "outputs": [],
      "stateMutability": "nonpayable",
      "type": "function"
    },
    {
      "inputs": [
        {
          "internalType": "address",
          "name": "newOwner",
          "type": "address"
        }
      ],
      "name": "transferOwnership",
      "outputs": [],
      "stateMutability": "nonpayable",
      "type": "function"
    },
    {
      "inputs": [],
      "name": "greet",
      "outputs": [
        {
          "internalType": "string",
          "name": "",
          "type": "string"
        }
      ],
      "stateMutability": "view",
      "type": "function",
      "constant": true
    },
    {
      "inputs": [
        {
          "internalType": "string",
          "name": "greeting",
          "type": "string"
        }
      ],
      "name": "setGreeting",
      "outputs": [],
      "stateMutability": "nonpayable",
      "type": "function"
    }
  ],
  "bytecode": "0x60806040526040518060400160405280600d81526020017f48656c6c6f2c20576f726c642100000000000000000000000000000000000000815250600190816200004a9190620003c5565b503480156200005857600080fd5b50620000796200006d6200007f60201b60201c565b6200008760201b60201c565b620004ac565b600033905090565b60008060009054906101000a900473ffffffffffffffffffffffffffffffffffffffff169050816000806101000a81548173ffffffffffffffffffffffffffffffffffffffff021916908373ffffffffffffffffffffffffffffffffffffffff1602179055508173ffffffffffffffffffffffffffffffffffffffff168173ffffffffffffffffffffffffffffffffffffffff167f8be0079c531659141344cd1fd0a4f28419497f9722a3daafe3b4186f6b6457e060405160405180910390a35050565b600081519050919050565b7f4e487b7100000000000000000000000000000000000000000000000000000000600052604160045260246000fd5b7f4e487b7100000000000000000000000000000000000000000000000000000000600052602260045260246000fd5b60006002820490506001821680620001cd57607f821691505b602082108103620001e357620001e262000185565b5b50919050565b60008190508160005260206000209050919050565b60006020601f8301049050919050565b600082821b905092915050565b6000600883026200024d7fffffffffffffffffffffffffffffffffffffffffffffffffffffffffffffffff826200020e565b6200025986836200020e565b95508019841693508086168417925050509392505050565b6000819050919050565b6000819050919050565b6000620002a6620002a06200029a8462000271565b6200027b565b62000271565b9050919050565b6000819050919050565b620002c28362000285565b620002da620002d182620002ad565b8484546200021b565b825550505050565b600090565b620002f1620002e2565b620002fe818484620002b7565b505050565b5b8181101562000326576200031a600082620002e7565b60018101905062000304565b5050565b601f82111562000375576200033f81620001e9565b6200034a84620001fe565b810160208510156200035a578190505b620003726200036985620001fe565b83018262000303565b50505b505050565b600082821c905092915050565b60006200039a600019846008026200037a565b1980831691505092915050565b6000620003b5838362000387565b9150826002028217905092915050565b620003d0826200014b565b67ffffffffffffffff811115620003ec57620003eb62000156565b5b620003f88254620001b4565b620004058282856200032a565b600060209050601f8311600181146200043d576000841562000428578287015190505b620004348582620003a7565b865550620004a4565b601f1984166200044d86620001e9565b60005b82811015620004775784890151825560018201915060208501945060208101905062000450565b8683101562000497578489015162000493601f89168262000387565b8355505b6001600288020188555050505b505050505050565b610a1480620004bc6000396000f3fe608060405234801561001057600080fd5b50600436106100575760003560e01c8063715018a61461005c5780638da5cb5b14610066578063a413686214610084578063cfae3217146100a0578063f2fde38b146100be575b600080fd5b6100646100da565b005b61006e6100ee565b60405161007b91906103d5565b60405180910390f35b61009e6004803603810190610099919061045f565b610117565b005b6100a8610135565b6040516100b59190610545565b60405180910390f35b6100d860048036038101906100d39190610593565b6101c7565b005b6100e261024a565b6100ec60006102c8565b565b60008060009054906101000a900473ffffffffffffffffffffffffffffffffffffffff16905090565b61011f61024a565b818160019182610130929190610810565b505050565b60606001805461014490610629565b80601f016020809104026020016040519081016040528092919081815260200182805461017090610629565b80156101bd5780601f10610192576101008083540402835291602001916101bd565b820191906000526020600020905b8154815290600101906020018083116101a057829003601f168201915b5050505050905090565b6101cf61024a565b600073ffffffffffffffffffffffffffffffffffffffff168173ffffffffffffffffffffffffffffffffffffffff160361023e576040517f08c379a000000000000000000000000000000000000000000000000000000000815260040161023590610952565b60405180910390fd5b610247816102c8565b50565b61025261038c565b73ffffffffffffffffffffffffffffffffffffffff166102706100ee565b73ffffffffffffffffffffffffffffffffffffffff16146102c6576040517f08c379a00000000000000000000000000000000000000000000000000000000081526004016102bd906109be565b60405180910390fd5b565b60008060009054906101000a900473ffffffffffffffffffffffffffffffffffffffff169050816000806101000a81548173ffffffffffffffffffffffffffffffffffffffff021916908373ffffffffffffffffffffffffffffffffffffffff1602179055508173ffffffffffffffffffffffffffffffffffffffff168173ffffffffffffffffffffffffffffffffffffffff167f8be0079c531659141344cd1fd0a4f28419497f9722a3daafe3b4186f6b6457e060405160405180910390a35050565b600033905090565b600073ffffffffffffffffffffffffffffffffffffffff82169050919050565b60006103bf82610394565b9050919050565b6103cf816103b4565b82525050565b60006020820190506103ea60008301846103c6565b92915050565b600080fd5b600080fd5b600080fd5b600080fd5b600080fd5b60008083601f84011261041f5761041e6103fa565b5b8235905067ffffffffffffffff81111561043c5761043b6103ff565b5b60208301915083600182028301111561045857610457610404565b5b9250929050565b60008060208385031215610476576104756103f0565b5b600083013567ffffffffffffffff811115610494576104936103f5565b5b6104a085828601610409565b92509250509250929050565b600081519050919050565b600082825260208201905092915050565b60005b838110156104e65780820151818401526020810190506104cb565b838111156104f5576000848401525b50505050565b6000601f19601f8301169050919050565b6000610517826104ac565b61052181856104b7565b93506105318185602086016104c8565b61053a816104fb565b840191505092915050565b6000602082019050818103600083015261055f818461050c565b905092915050565b610570816103b4565b811461057b57600080fd5b50565b60008135905061058d81610567565b92915050565b6000602082840312156105a9576105a86103f0565b5b60006105b78482850161057e565b91505092915050565b600082905092915050565b7f4e487b7100000000000000000000000000000000000000000000000000000000600052604160045260246000fd5b7f4e487b7100000000000000000000000000000000000000000000000000000000600052602260045260246000fd5b6000600282049050600182168061064157607f821691505b602082108103610654576106536105fa565b5b50919050565b60008190508160005260206000209050919050565b60006020601f8301049050919050565b600082821b905092915050565b6000600883026106bc7fffffffffffffffffffffffffffffffffffffffffffffffffffffffffffffffff8261067f565b6106c6868361067f565b95508019841693508086168417925050509392505050565b6000819050919050565b6000819050919050565b600061070d610708610703846106de565b6106e8565b6106de565b9050919050565b6000819050919050565b610727836106f2565b61073b61073382610714565b84845461068c565b825550505050565b600090565b610750610743565b61075b81848461071e565b505050565b5b8181101561077f57610774600082610748565b600181019050610761565b5050565b601f8211156107c4576107958161065a565b61079e8461066f565b810160208510156107ad578190505b6107c16107b98561066f565b830182610760565b50505b505050565b600082821c905092915050565b60006107e7600019846008026107c9565b1980831691505092915050565b600061080083836107d6565b9150826002028217905092915050565b61081a83836105c0565b67ffffffffffffffff811115610833576108326105cb565b5b61083d8254610629565b610848828285610783565b6000601f8311600181146108775760008415610865578287013590505b61086f85826107f4565b8655506108d7565b601f1984166108858661065a565b60005b828110156108ad57848901358255600182019150602085019450602081019050610888565b868310156108ca57848901356108c6601f8916826107d6565b8355505b6001600288020188555050505b50505050505050565b7f4f776e61626c653a206e6577206f776e657220697320746865207a65726f206160008201527f6464726573730000000000000000000000000000000000000000000000000000602082015250565b600061093c6026836104b7565b9150610947826108e0565b604082019050919050565b6000602082019050818103600083015261096b8161092f565b9050919050565b7f4f776e61626c653a2063616c6c6572206973206e6f7420746865206f776e6572600082015250565b60006109a86020836104b7565b91506109b382610972565b602082019050919050565b600060208201905081810360008301526109d78161099b565b905091905056fea2646970667358221220cbf82cdb12df092a377456260e9215e8b1fdfc5bccab415f2a83b2198d4a6f7e64736f6c634300080f0033",
  "immutableReferences": {},
  "source": "pragma solidity ^0.8.15;\n\nimport \"@openzeppelin/contracts/access/Ownable.sol\";\n\ncontract Greeter is Ownable {\n  string private _greeting = \"Hello, World!\";\n\n  function greet() external view returns (string memory) {\n    return _greeting;\n  }\n\n  function setGreeting(string calldata greeting) external onlyOwner {\n    _greeting = greeting;\n  }\n}",
  "sourcePath": "/home/nakamura/Desktop/solidity/smartcontract-sample/contracts/Greeter.sol",
  "compiler": {
    "name": "solc",
    "version": "0.8.15+commit.e14f2714.Emscripten.clang"
  },
  "schemaVersion": "3.4.8",
  "updatedAt": "2022-07-09T22:28:48.618Z",
  "networkType": "ethereum",
  "devdoc": {
    "kind": "dev",
    "methods": {
      "owner()": {
        "details": "Returns the address of the current owner."
      },
      "renounceOwnership()": {
        "details": "Leaves the contract without owner. It will not be possible to call `onlyOwner` functions anymore. Can only be called by the current owner. NOTE: Renouncing ownership will leave the contract without an owner, thereby removing any functionality that is only available to the owner."
      },
      "transferOwnership(address)": {
        "details": "Transfers ownership of the contract to a new account (`newOwner`). Can only be called by the current owner."
      }
    },
    "version": 1
  },
  "userdoc": {
    "kind": "user",
    "methods": {},
    "version": 1
  }
}